:020000040800F2
:10000000582500209D0100088F2C0008932B000824
:100010008D2C000849060008CD3A000800000000B9
:10002000000000000000000000000000DF390008B0
:100030004B06000800000000912C0008E139000880
:10004000B7010008B7010008B7010008B7010008B0
:10005000B7010008B7010008B7010008B7010008A0
:10006000B7010008B7010008B7010008B701000890
:10007000B7010008B7010008B7010008B701000880
:10008000B7010008B7010008B7010008B701000870
:10009000B7010008B7010008B7010008B701000860
:1000A000B7010008B7010008B7010008B701000850
:1000B000B7010008B7010008B7010008B701000840
:1000C000B7010008B7010008B7010008B701000830
:1000D000B7010008B7010008B7010008B701000820
:1000E000B7010008B7010008B7010008B701000810
:1000F000B7010008B7010008B7010008B701000800
:10010000B7010008452F0008B7010008B701000833
:10011000B7010008B7010008B7010008B7010008DF
:10012000B7010008B7010008B7010008B7010008CF
:10013000B7010008B7010008B7010008B7010008BF
:10014000B7010008B7010008B7010008B7010008AF
:10015000B7010008B7010008B7010008B70100089F
:10016000B7010008B7010008B7010008B70100088F
:10017000B7010008B7010008B7010008000000003F
:10018000B7010008B7010008DFF80CD000F02AF82A
:1001900000480047594A0008582500200648804773
:1001A00006480047FEE7FEE7FEE7FEE7FEE7FEE75C
:1001B000FEE7FEE7FEE7FEE7893A0008890100084E
:1001C000D2B201E000F8012B491EFBD27047002299
:1001D000F6E710B513460A4604461946FFF7F0FF46
:1001E000204610BD064C074D06E0E06840F00103D4
:1001F00094E8070098471034AC42F6D3FFF7C8FFE5
:10020000F84E0008184F00087047000010B5064867
:1002100002F00FF80548016C41F480610164016C43
:1002200021F48061016410BD4400002000100240F0
:100230000146014802F0DEB84400002010B5044831
:1002400002F0EAF8042801D0012010BD002010BD02
:100250004400002010B500F015F8012801D002205C
:1002600010BD074802F0EAF9040006D14FF400611E
:10027000034801F051FF00B10124204610BD0000E9
:100280004400002008B501208DF800009DF8000012
:1002900008BD000038B50024009313460A46014605
:1002A000034802F091FA00B10124204638BD000055
:1002B000440000207047000038B500240093134626
:1002C0000A460146034802F077FB00B101242046AC
:1002D00038BD000044000020704700000548006859
:1002E000A0F10050B0F5C03F01D8002070470120B8
:1002F000704700000080000809490968CA431204D9
:10030000120C07D009048909A1F50041814204D3E8
:10031000002070474FF48011F6E70220704700007C
:10032000E075FF1F2DE9F0438BB081462821684618
:10033000FFF74DFF00F046FE044600F0DBFD002510
:100340004FF0010840EA0406CDE900855FEAC97074
:100350004FF0FF0403D01020CDE9020401E0CDE905
:100360000245684600F050FD40EA06074646CDF8D3
:1003700004806846CDF80080CDE9024500F044FDD8
:1003800040EA07080220CDE900605FEAC97002D0A8
:10039000CDE9025401E0CDE90245684600F034FDA4
:1003A00040EA080701A90420009681E83100684668
:1003B00000F02AFD50EA070402D100F085FD044652
:1003C00000F08EFD044300F075FD204300D00620B0
:1003D0000BB0BDE8F0830000F0B585B000260496B0
:1003E00000F0F0FD1A480068C1430904090C18D058
:1003F00000048009A0F50040C40A4FF48077BC4295
:1004000012D901200190E0B20390C0F580700290F3
:1004100004A90096684600F035FC05003C4603D070
:100420000EE04FF48010E5E702200190C4F58070E3
:100430000290039404A90096684600F023FC054648
:1004400000F038FD15B1042005B0F0BD0020FBE739
:10045000E075FF1F044910B50248086000F0B2FDC6
:10046000002010BD008000080000002010B500F042
:1004700021FD002010BD000070B5044615480D4652
:100480000068C1430904090C11D000048009124915
:10049000124E08443168884213D31148814210D368
:1004A00022462B46002000F037FD18B109E04FF43A
:1004B0008010ECE73068D0E9001261406A401143D7
:1004C00003D000F0F7FC052070BD0830306000203C
:1004D00070BD0000E075FF1FF8FFFF07000000205F
:1004E00000800008F0B58BB028216846FFF76FFE4A
:1004F000002400F067FD0020012601900796684661
:1005000000F036FCDDE90810284D884202D9A942E6
:1005100000D30424DDE902104FF00067884205D9BA
:1005200007EBC120A84201D344F0010468460196BC
:1005300000F01EFCDDE90210884205D907EBC1205E
:10054000A84201D344F001040220079001906846BC
:1005500000F00EFCDDE90810884203D9A94201D35E
:1005600044F00404DDE90210114E884205D906EB7F
:10057000C120A84201D344F0010404200190684640
:1005800000F0F6FBDDE90210884205D906EBC12038
:10059000A84201D344F001040498AA2801D044F0F1
:1005A000020400F087FC0BB02046F0BD008000087C
:1005B000000008080F4808B5016E41F0010101660E
:1005C000016E01F001010091816C41F48071816440
:1005D000806C00F48070009000F0F4FC06488169A3
:1005E00041F0404181614CF2FA31016100F062FC5E
:1005F000002008BD001002400020024070B572B615
:100600000F4D6C6801F02AFA00F014FB4FF0E02166
:10061000002008614861886172B6BFF34F8FBFF355
:100620006F8F08480560286880F30888BFF34F8FF4
:10063000BFF36F8F62B6A446BDE87040604700000C
:100640000080000808ED00E0FEE7704710B586B0B6
:10065000FFF748FFC0070CD00024322000F000FB59
:100660000020FFF75FFE641CE4B2642CF5D306B0F3
:1006700010BD01222C492D4803F034FD0028F6D18D
:1006800001222BA12D4803F059FDE0BB2B48C06887
:10069000FFF732FE18B1294803F010FD40E0FFF7E4
:1006A00089FFFFF799FEFFF7D5FE00BF4FF0FF303F
:1006B000010ACDE9000103AB082269461F4803F097
:1006C0004BFE0446039828B1DDE90001FFF7D4FE94
:1006D0000028E0D114B903980028E7D1FFF7C6FE3F
:1006E000164803F0EBFC012211A1144803F026FD8B
:1006F00048B9134C4FF0FF30CDE9000003AB0422A2
:1007000069460E4800E00BE003F026FE039921B194
:100710002368009A9342BED1241D08B90029E9D16B
:1007200002F0B2FFA3E7000006000020C80000208E
:100730006D7970726A2E62696E000000FC100020F4
:1007400000800008002200F001B8000030B50E4B18
:10075000054601205C7A002C14D1587A1C54587A32
:1007600003EB800045605D7A03F108002A54587A53
:10077000421C5A72303008703A2048702F2088701E
:10078000CC70002030BD00004C210020002100F082
:1007900001B800000B4910B502464B7A0120002B2E
:1007A0000FD01278303AD2B201EB82035C68002C91
:1007B00007D000200A4458601072487A401E4872E0
:1007C000002010BD4C210020124A117F124801293F
:1007D00001D003290BD1036843F40063036003686D
:1007E00023F400630360036843F400730360022989
:1007F00001D003290BD1016841F4805101600168E7
:1008000021F480510160016841F4806101600020A1
:100810001077704718000020002002400849C207E6
:1008200003D04A6942F004024A61800703D548694F
:1008300040F400404861486940F4803048617047A6
:1008400000200240F0B51F4B1B684FF48016DC05FA
:100850001D4B1D684FF000636FEA0507BCB205D45D
:100860000CB12C04A60903EB560405E00CB12C04D2
:10087000A6091C4603EB5603057805F00306134D45
:10088000012E02D0022E0AD014E06C6AA4B203EB4F
:10089000C4040C60A96A89B203EBC10108E06B6C67
:1008A0009BB204EBC3030B60A96C89B204EBC101DA
:1008B000C91D11600168AA6A02F00042114301607B
:1008C000F0BD000000000140E075FF1F0020024065
:1008D0002DE9F04105464CF2503716460C46384695
:1008E00000F050F900284DD127480068274BC20579
:1008F0004FF480111A684FF000606FEA02039BB258
:1009000005D40BB11104890900EB510205E00BB1CC
:1009100011048909024600EB510005F003031C494C
:10092000012B02D0022B0FD01CE04B6A221A6FF36E
:100930000F0343EAD2034B628A6A301A6FF30F0245
:1009400042EAD0028A620DE04B6CA01A6FF30F03EB
:1009500043EAD0034B64B01A8A6C6FF30F0242EA89
:10096000D0028A64886A0C4660F31E058D6248696D
:1009700040F400304861384600F004F9616921F420
:1009800000316161BDE8F08100000140E075FF1FAA
:10099000002002402DE9F041074600244CF2503877
:1009A0000E462546404600F0EDF8002869D1F807CC
:1009B00003D006F4E0644FF4E065B80704D506F40C
:1009C0008050044345F48055780704D506F4005060
:1009D000044345F40055F80404D506F4804004436C
:1009E00045F48045380704D506F48030044345F4C7
:1009F0008035F80604D506F40030044345F400358C
:100A0000B80604D506F48020044345F48025780612
:100A100004D506F40020044345F40025380604D527
:100A200006F48010044345F48015F80504D506F457
:100A30000010044345F40015B80504D506F4000081
:100A4000044345F40005780504D506F0807004439E
:100A500045F08075380504D506F00070044345F074
:100A60000075094E306AA84320433062706940F433
:100A700000307061404600F085F8716921F4003162
:100A80007161BDE8F0810000002002402DE9F041D5
:100A900005464CF2503614460F46304600F072F8C8
:100AA00000282CD147EA0440164C35B1012D0AD05C
:100AB000022D0ED0042D12D016E0E16A01F0FF21C4
:100AC0000143E16210E0216B01F0FF21014321634A
:100AD0000AE0E16C01F0FF210143E16404E0216DD3
:100AE00001F0FF2101432165606940F4003060613D
:100AF000304600F047F8616921F400316161BDE8DA
:100B0000F081000000200240CA070B494A6902D068
:100B100022F4006201E042F400624A614A6960F333
:100B2000CA024A61486940F002004861486940F4DD
:100B3000803048617047000000200240054910B530
:100B40004C6944F001044C610260BFF36F8F436055
:100B500010BD000000200240094A10B5546940232E
:100B600044F480245461EFF3108272B610C910C0AF
:100B70005B1E13F0FF03F9D182F3108810BD000053
:100B80000020024070B5054600F01CFC0646134CE0
:100B900008E0681C06D000F015FC801BA84201D3B9
:100BA000032070BD2069C003F3D420694CF2FA31F0
:100BB00008400CD00A494A6802434A60810F01D0BC
:100BC000A169A161810000D02061012070BD206970
:100BD000C00701D001202061002070BD002002402C
:100BE0001800002010B590F825100024022903D029
:100BF0000421C16301241AE001680A6822F00E0290
:100C00000A6001680A6822F001020A6090F8441044
:100C1000036C01F01C02012101FA02F25A6080F813
:100C20002510002180F82410816B01B188472046EF
:100C300010BD0000094810B54FF0FF31816300225C
:100C400082630164026481628262C162C262016382
:100C5000026300F0F7FB002010BD0000001002400E
:100C600070B5044600F0AEFB0546601C02D0044897
:100C70004068044400F0A6FB401BA042FAD370BDBC
:100C80000C0000202DE9F05F0546354889460178C3
:100C900001290CD00127804607704CF2503B584682
:100CA000FFF770FF06004FF0000A03D053E0022068
:100CB00000F05AB851464046C8F804A0294C2268B2
:100CC00092050ED5216821F4007121602168490543
:100CD00005D5216821F480612160032109E00777AF
:100CE00008E02268520504D5216821F48061216062
:100CF000022101772868012807D04FF0FF31C9F899
:100D0000001040F2FA7BAF681EE06868FFF786FDCE
:100D10005846FFF737FF0646606948F204018843EA
:100D2000606116E038466968FFF7EEFE4CF250301D
:100D3000FFF728FF0600606920EA0B00606102D01F
:100D4000C9F8007005E07F1CD5E902010844B842EB
:100D5000E8D8FFF739FD88F800A03046A8E7000082
:100D6000180000200020024030BCBDE8C09F0000F9
:100D700006210160234942682AB1012A03D0022AD0
:100D800001D0042A15D10723036032B1012A09D00A
:100D9000022A16D0042A19D00BE0CA6AD2B28260A5
:100DA000CA6A03E00A6BD2B282600A6BC2F30742DE
:100DB000C2600A6AD2B2AA2A0DD0CC2A0BD0BB22BA
:100DC0000BE0CA6CD2B28260CA6CEFE70A6DD2B295
:100DD00082600A6DEAE70A6AD2B20261096A21F00A
:100DE000FF018161C169012901D0022909D101688E
:100DF00000F1240241F008010160111F1C30FFF7CF
:100E000021BD7047002002402DE9F04704462748E5
:100E10000025017801291AD0012101704FF0000945
:100E20008046C0F804902078C00705D0201D07C870
:100E3000FFF72CFE00B10125207880071DD54CF26C
:100E4000503A50462769FFF79DFE18B114E0022082
:100E5000BDE8F087164E306A20F0FF00384330625C
:100E6000706940F4003070615046FFF78BFE716985
:100E700021F40031716100B101252078400705D5CA
:100E8000D4E90501FFF786FD00B1012520780007B0
:100E900008D5D4E90812914204D0E069FFF718FDA3
:100EA00000B1012588F800902846D1E718000020FD
:100EB000002002400348416941F0004141610020A7
:100EC00070470000002002400448416941F0006181
:100ED00041614CF25030FFF755BE00000020024047
:100EE0000348416941F080414161002070470000A2
:100EF0000020024005484169490005D50449C16008
:100F00000449C16000207047012070470020024062
:100F10003B2A19087F6E5D4C2DE9FF5F254C064684
:100F2000904620789A4601280BD0012020704CF280
:100F3000503B5846FFF726FE07004FF0000904D04B
:100F40002AE0022004B000F039B84846C4F8049002
:100F5000194D2968490504D5286820F48060286067
:100F60000220207726B1012E09D0022E07D00CE0F6
:100F7000424653460198FFF7E1FD012612E0414643
:100F80000198FFF7E9FD022E0AD05846FFF7FAFD57
:100F90004FEA0007FFF718FC84F800903846D1E7C5
:100FA0004FF480265846FFF7EDFD07466869B043C9
:100FB0006861EFE7180000200020024030BCBDE867
:100FC000C09F0000064900204A69002A07DA054A46
:100FD0008A60054A8A604969002900DA0120704761
:100FE0000020024023016745AB89EFCD2DE9F84F82
:100FF00000230126DFF834C10F2791E006FA03F43D
:1010000014EA01027ED023F003056544AA46D5F810
:1010100008909D074FEA157E07FA0EF505EA090BC1
:101020000095B0F1904F05D0414DA84205D14FF049
:10103000010822E04FF000081FE03E4DA84202D117
:101040004FF0020819E03C4DA84202D14FF00308CE
:1010500013E03A4DA84202D14FF004080DE0384D9C
:10106000A84202D14FF0050807E0364DA84202D150
:101070004FF0060801E04FF0070808FA0EF8D845CF
:1010800024D1DFF8C480D8F8009029EA0209C8F812
:10109000009008F10408D8F8009029EA0209C8F87D
:1010A000009008F10408D8F8009029EA0209C8F86D
:1010B000009008F10408D8F800509543C8F8005093
:1010C000009ADAF808509543CAF80850D0F8008022
:1010D0004FEA4309032202FA09F248EA0208C0F87B
:1010E0000080DD0800EB8505AA46D5F820804FEA90
:1010F00043794FEAD96907FA09F528EA0508CAF8D9
:10110000208000E00BE08568954385604568A54335
:101110004560C5689543C560C26AA243C2625B1C54
:1011200031FA03F27FF46AAF00F010B8000001401A
:101130000004004800080048000C00480010004867
:1011400000140048001800480004014018BCBDE825
:10115000E08F00002DE9F04FDFF83492002309F111
:10116000040A012403250AF1040B87B00F270BF1B1
:10117000040E04E104FA03F632407CD0D1F804C036
:10118000BCF1010F08D0BCF1020F05D0BCF1110F6A
:1011900002D0BCF1120F29D1D0F808C0CDF800C0A0
:1011A0004FEA430C05FA0CF8CDF80CC0DDF800C08E
:1011B0002CEA080CCDF800C0D1F80C80DDF80CC08A
:1011C00008FA0CF8DDF800C048EA0C08C0F80880FE
:1011D000D0F8048091F804C028EA0608CCF3001C7B
:1011E0000CFA03FC4CEA080CC0F804C0D1F80480E7
:1011F0006FEA080C5FEA8C7C09D1D0F82CC02CEA8D
:10120000060CC8F3C0069E4046EA0C06C662D0F83B
:101210000CC04FEA430805FA08F62CEA060CCDF894
:10122000148002968E6806FA08F646EA0C06C66036
:101230004E68022E01D0122E15D1DE0800EB860674
:101240000396366A4FEA437C4FEADC6807FA08FCEB
:1012500026EA0C06D1F810C00CFA08FC4CEA060C81
:10126000039EC6F820C00668DDF808C026EA0C0612
:1012700091F804C000E081E0DDF814800CF0030C6C
:101280000CFA08FC4CEA060CC0F800C04E68F600E8
:1012900074D5404ED6F860C04CF0010CC6F860C062
:1012A000366E23F0030C06F0010600963A4E6644B3
:1012B0000296D6F808C09E074FEA167807FA08F695
:1012C0002CEA060CB0F1904F04D0344EB04203D15A
:1012D00001261BE0002619E0314EB04201D1022662
:1012E00014E0304EB04201D103260FE02E4EB04242
:1012F00001D104260AE02D4EB04201D1052605E0B9
:101300002B4EB04201D1062600E0072606FA08F669
:1013100046EA0C06DDF808C0CCF80860D9F8006091
:10132000CC46D1F8048096435FEAC83800D516430E
:10133000CCF80060DAF80060D446D1F80480964317
:101340005FEA883800D51643CCF80060DBF800600F
:10135000DC46D1F8048096435FEAC82800D51643DE
:10136000CCF80060DEF80060F446D1F804809643C3
:101370005FEA882800D51643CCF800605B1C0A6839
:1013800032FA03F67FF4F6AE07B000F013B80000AF
:101390000004014000100240000001400004004829
:1013A00000080048000C00480010004800140048E5
:1013B0000018004830BCBDE8C08F0AB18161704799
:1013C0008162704701488068704700000C0000206F
:1013D0000248816842681144816070470C00002017
:1013E00010B50024032000F083F8002000F008F876
:1013F00008B1012401E000F027F8204610BD0000EC
:1014000070B50E4E05460024706898B14FF47A719D
:10141000B1FBF0F00A490968B1FBF0F001F0A5FB5F
:1014200040B9102D06D200222946501E00F040F887
:10143000356000E00124204670BD00000C00002053
:101440003800002070470000094808B5016E41F0DF
:1014500001010166016E01F001010091816D41F011
:1014600080518165806D00F08050009008BD0000C3
:101470000010024000280DDB00F01F020121914006
:101480004009800000F1E020C0F88011BFF34F8FC9
:10149000BFF36F8F7047002809DB00F01F020121A6
:1014A00091404009800000F1E020C0F80011704731
:1014B000F0B40E4B1B680C46C3F30223C3F10705BF
:1014C000042D00D90425191D072901D2002300E0AD
:1014D000DB1E012606FA05F1491E214099409E4077
:1014E000761E16403143F0BC02F0F1BA0CED00E07C
:1014F000064900F0070208684FF6FF03184040EA6B
:101500000220034A10430860704700000CED00E021
:101510000000FA051649B0F5007F0868C0F34120C5
:1015200009D0022805D0086820F4C06040F480602B
:101530000860002070470128FBD0086820F4C060D4
:1015400040F4007008600B483222006850430A4A99
:10155000B0FBF2F0401C00E0401E4A69520501D584
:101560000028F9D148694005E3D503207047000001
:10157000007000403800002040420F000248006820
:1015800000F4C06070470000007000402DE9F84F83
:10159000044600270088E54D3E46010504F1200B76
:1015A0001DD5606E78B1B0F5800F11D0B0F5000F89
:1015B00004D0B0F5400F22D001270FE0E86840F4D6
:1015C0008030E8601BE00021201D01F063FB03E098
:1015D0000021584601F0F4FB070010D03E46208859
:1015E000C00426D5A06EC0B1B0F1807F1AD0B0F192
:1015F000007F0DD0B0F1407F19D0012718E0D5F859
:101600008800616E20F440000843C5F88800E6E7D2
:10161000E86840F48030E86009E00021201D01F016
:1016200039FB03E00021584601F0CAFB0746F7B139
:101630003E46206880033AD5A86D4FF00008C000F0
:1016400009D4A86D40F08050A865A86D4FF001083E
:1016500000F080500090DFF8D8A2DAF8001041F4D2
:101660008071CAF80010FFF7ADFE814610E0D5F892
:101670008800A16E20F040700843C5F88800D8E7C4
:10168000FFF7A0FEA0EB0900022801D9032705E01F
:10169000DAF80000C005F3D5002F7CD04FEA07062A
:1016A000B8F1000F03D0A86D20F08050A865207815
:1016B000C00707D0D5F88800A16B20F003000843CD
:1016C000C5F888002078800707D5D5F88800E16B39
:1016D00020F00C000843C5F888002078400707D5A3
:1016E000D5F88800216C20F030000843C5F8880048
:1016F0002078000707D5D5F88800616C20F0C0007D
:101700000843C5F888002078C00607D5D5F88800BA
:10171000A16C20F440700843C5F88800207880064A
:1017200007D5D5F88800E16C20F440600843C5F87F
:1017300088002088800507D5D5F88800E16D20F461
:1017400040200843C5F888002088400507D5D5F813
:101750008800216E20F440100843C5F888002078E6
:10176000400607D5D5F88800216D20F44050084385
:10177000C5F888002078000607D5D5F88800616D87
:1017800020F440400843C5F888002088C00509D5EA
:10179000D5F8880000E01CE0A16D20F4403008433B
:1017A000C5F8880020884FF0006780044FF08068FB
:1017B0004FD5D5F88800E16E20F040600843C5F8A9
:1017C0008800E06EB8423CD1E86840F48010E860E0
:1017D0003FE0D5F8900010F4407015D0D4F8841094
:1017E000814211D0D5F89000D5F8901020F44070C7
:1017F00041F48031C5F89010D5F8901021F4803173
:10180000C5F89010C5F89000C00710D0FFF7DAFDBA
:10181000074641F2883906E0FFF7D4FDC11B494570
:1018200001D903263CE7D5F890008007F4D5D5F818
:101830009000D4F8841020F440700843C5F890005C
:101840002EE7404505D10121201D01F023FA00B10A
:1018500006462068000317D5D5F88800216F20F0D0
:1018600040600843C5F88800206FB84204D1E8689A
:1018700040F48010E86007E0404505D10121201DBB
:1018800001F008FA00B106462068400317D5D5F8E4
:101890008800616F20F040600843C5F88800606FE1
:1018A000B84204D1E86840F48010E86007E04045A1
:1018B00005D10121201D01F0EDF900B10646208877
:1018C00040041AD5D5F88800A16F20F04050084395
:1018D000C5F88800A06FB0F1805F03D0B0F1005F61
:1018E00005D00AE00221201D01F0D4F903E0022115
:1018F000584601F065FA00B106462088000407D575
:10190000D5F88800E16F20F080400843C5F88800D2
:101910002068C00307D555F8880FD4F8801020F050
:10192000004008432860304600F004B80010024030
:101930000070004018BCBDE8E08F00002DE9F047C2
:101940000F46050058D0404E306800F00700B842FE
:1019500009D2306820F0070038433060306800F06A
:101960000700B84248D12878384CC0072CD06868A6
:10197000032811D0022812D0216898B14905002906
:101980003ADAA16821F003010143A160FFF71AFDD3
:10199000804641F2883910E021688901EFE721682B
:1019A0008903ECE78907EAE7FFF70CFDA0EB0801E4
:1019B000494502D90320BDE8F087A068696800F0B6
:1019C0000C00B0EB810FEFD12878800705D5A06817
:1019D000A96820F0F0000843A060306800F007001C
:1019E000B8420BD9306820F00700384330603068C7
:1019F00000F00700B84201D00120DCE7287840075A
:101A000005D5A068E96820F4E0600843A060287864
:101A1000000706D5A068296920F4605040EAC1009B
:101A2000A06000F08FF8A168094AC1F30311515C6E
:101A300001F01F01C8400749086007480068BDE879
:101A4000F047FFF7DDBC000000200240001002401C
:101A50001C4E0008380000200C0000202DE9F04149
:101A6000334C206840F001002060FFF7ABFC0546D6
:101A700005E000BFFFF7A6FC401B022833D8206812
:101A80008007F7D5206820F0F00040F0600020606B
:101A90000025A56028492748086028480068FFF706
:101AA000AFFC10B10120BDE8F081FFF78BFC0646CA
:101AB00041F2883705E000BFFFF784FC801BB84285
:101AC00011D8A06810F00C0FF6D120681C4908400E
:101AD0002060FFF777FC064607E000BFFFF772FCC7
:101AE000801B022801D90320DDE7206810F0285F61
:101AF000F4D1E560E06840F48050E0602561206941
:101B000040F4805020616561606940F480506061FC
:101B1000206820F480202060A5614FF0FF30206213
:101B2000D4F8940040F40000C4F894000020BAE710
:101B30000010024000093D00380000200C00002089
:101B4000FFF4FEEA70B52549002318468A68CC6880
:101B500012F00C0204F00306214C4FEA640509D090
:101B60000C2A05D0042A32D0082A00D1284670BD9C
:101B7000012E10D10B681B0704D4D1F89430C3F3A5
:101B8000032302E00B68C3F30313164E56F8233009
:101B9000DAB10C2AEBD1C86800F00300022818D093
:101BA000032818D01846CA68CB68C2F30212C3F3E0
:101BB00006234343521CB3FBF2F2C868C0F34160F2
:101BC000401C4000B2FBF0F070BD184670BD2046CE
:101BD00070BD2046E7E72846E5E700000010024018
:101BE0000024F4002C4E00082DE9F84304006FD0C7
:101BF000FE4DA86800F00C06E86800F003072078A6
:101C0000C00664D576B10C2E01D1012F0AD0A0698F
:101C1000002828687AD040F001002860FFF7D2FB46
:101C200080465DE02868800702D5A0690028DED0E4
:101C3000216A2868000703D5286800F0F00004E056
:101C4000D5F89400F02202EA1010814216D9084615
:101C500001F03AF900283BD1286840F008002860DC
:101C60002868216A20F0F000084328606868E1696C
:101C700020F47F4040EA0120686016E0286840F0C8
:101C8000080028602868216A20F0F00008432860D6
:101C90006868E16920F47F4040EA0120686026B965
:101CA000206A01F011F90028D5D1FFF74BFFA96890
:101CB000CF4AC1F30311515C01F01F01C840CD4967
:101CC0000860CD480068FFF79BFB00287ED12EE01E
:101CD000CAE000BFFFF776FBA0EB0800022876D829
:101CE00028688007F6D5286840F008002860286832
:101CF000216A20F0F000084328606868E16920F458
:101D00007F4040EA0120686011E0FFE720F0010019
:101D10002860FFF757FB804606E000BFFFF752FB45
:101D2000A0EB08000228DAD828688007F6D42078CB
:101D3000C00740D0082E18D00C2E01D1032F14D08C
:101D40006068B0F5803F17D0B0F5A02F286817D095
:101D500020F480302860286820F4802028606068A3
:101D6000E0B1FFF72FFB804614E02868800322D5FE
:101D70006068002878D01EE0286840F48030EDE7E5
:101D800040F480202860F7E7FFF71CFBA0EB080079
:101D90006428A4D828688003F6D50CE0FFF712FB6E
:101DA000804605E0FFF70EFBA0EB0800642896D8FC
:101DB00028688003F6D4207880073BD5042E11D004
:101DC0000C2E01D1022F0DD0E06801E092E1F1E08C
:101DD000002828681ED040F480702860FFF7F2FACF
:101DE00007460CE0286840050CD5E0680028C1D003
:101DF00008E000BFFFF7E6FAC01B022893D8286866
:101E00004005F7D56868217C20F0F85040EA016071
:101E100068600FE020F480702860FFF7D3FA07466F
:101E200005E000BFFFF7CEFAC01B0228B1D8286832
:101E30004005F7D42078000729D560690028D5F837
:101E4000940012D040F00100C5F89400FFF7BAFAF0
:101E5000074604E0FFF7B6FAC01B022899D8D5F868
:101E600094008007F6D512E000E120F00100C5F8EB
:101E70009400FFF7A7FA074605E000BFFFF7A2FAB4
:101E8000C01B022885D8D5F894008007F6D42078A6
:101E9000400766D5A86D0027C00008D4A86D40F0A3
:101EA0008050A865A86D012700F08050009053482D
:101EB0000168C90512D40168814641F4807101604E
:101EC000FFF780FA804605E0FFF77CFAA0EB0800F8
:101ED00002286FD8D9F80000C005F5D5A068012800
:101EE00016D00528D5F8900017D020F00100C5F8CD
:101EF0009000D5F8900020F0040000BFC5F89000D5
:101F0000A06841F28839C0B1FFF75CFA80460FE063
:101F1000D5F8900040F00100F0E740F00400C5F86B
:101F20009000F5E7FFF74EFAA0EB0801494541D8CC
:101F3000D5F890008007F5D50EE0FFF743FA80460C
:101F400006E000BFFFF73EFAA0EB0801494531D893
:101F5000D5F890008007F5D41FB1A86D20F080500F
:101F6000A865A06A38B302280AD00C2E7ED0286853
:101F700020F080702860286810F0205F77D0AAE0F9
:101F8000E868E26A00F0030191422BD1216B00F076
:101F9000700209011039914224D1626B00F4FE41B4
:101FA000B1EB022F1ED1A26B00F40031072A03D03F
:101FB000012202E09DE089E00022914212D1A18F2E
:101FC00000F4C00249084905A1F50011914209D168
:101FD00094F8401000F0C06049084906A1F1007172
:101FE00081425CD00C2E41D0286809E000100240EC
:101FF0001C4E0008380000200C000020007000403B
:1020000040017ED42868C0007BD4286820F080700E
:102010002860FFF7D7F9064605E000BFFFF7D2F9C1
:10202000801B022865D828688001F7D4D4E90B0109
:102030006FF00F0202EB01110843A18F520449080F
:1020400002EB4151626B41EA0221084394F84010CF
:102050004FF07E42490802EB41610843A16B090938
:1020600040EA4140E968284A114001E049E02EE099
:102070000843E860286840F080702860E86840F015
:102080008070E860FFF79EF9044604E0FFF79AF9D4
:10209000001B02282DD828688001F7D52FE028687A
:1020A00080012CD4286840F080702860E86840F0F7
:1020B0008070E860FFF786F9044604E0FFF782F9D4
:1020C000001B022815D828688001F7D517E0E868BA
:1020D00020F00300E860E8680C490840E860FFF77A
:1020E00071F9044608E000BFFFF76CF9001B0228F5
:1020F00002D90320BDE8F88328688001F4D40020C9
:10210000F8E70120F6E700008C809DF9FFFFEEFE66
:1021100010B5FEF779F810BD2DE9FE430446002600
:1021200003200D4684F83400606C03285AD0B5F5BE
:10213000805F57D04FF4006700204FF08068BD42A9
:102140001FD18146009001900021206801F008FA1B
:10215000800113D46946204601F09EFA07000DD194
:102160000198400334D5B4F850000104206800F011
:10217000EFFE070002D10221206823E0A06B384364
:1021800028E01DB1A06B40F0006023E08146009084
:1021900001900021206801F0E3F98001EED4694646
:1021A000204601F079FA0700E8D10198C0030FD565
:1021B000B4F850000104206800F0CAFE0700DDD129
:1021C0000021206800F011FF0700D7D14F46D5E766
:1021D0004746D3E7A063A06B134F38B120688763ED
:1021E00001260EE0A06B40F08050F3E7211DD4E9FA
:1021F000050C0EC9CDE90050CDF808C0206801F0EB
:10220000B2F94FF40071206800F0D6FE28B12168C1
:102210008F63A16B0143A1630126012084F8340080
:10222000304600F003B80000FF05400006BCBDE8E2
:10223000F88310B504000DD0032084F83400206822
:1022400001F0A2F9204600F053FA0020A06384F8C0
:10225000340010BD012010BD70470000F0B5426E83
:10226000920F0A70426EC2F383624A70426EC2F3EA
:1022700001628A70426E120CCA70B0F86420120AB1
:102280000A7190F864204A71826E120DCA80826EC3
:10229000C2F303420A72B0F86820C2F3C0324A7235
:1022A000B0F86820C2F380328A72B0F86820C2F3B6
:1022B0004032CA72B0F86820C2F300320A730026B6
:1022C0004E73426C4FF40075012462B1012A3AD07A
:1022D000026847499163816B41F08051816380F8C6
:1022E00034400120F0BDB0F86820C36E9205120D95
:1022F00042EA93720A61C26EC2F3C2620A75C26E8A
:10230000C2F302624A75C26EC2F342528A75C26E4D
:10231000C2F38242CA75C26EC2F3C2320A760A6939
:10232000521C42650B7E03F007039B1C9A404265DA
:102330000B7A03F00F0704FA07F383655B0A5A432D
:10234000C0E917250EE090F86820C36E9206920A45
:1023500042EA13420A610A69521C92024265C0E9CC
:102360001652056630F86C2FC2F3803201F8192F2F
:102370000288C2F3C6124A70027802F07F028A70A5
:102380004268D20FCA704268C2F341720A71426851
:10239000C2F382624A714268C2F383528A71426810
:1023A000C2F34052CA710E724268C2F300424A72CE
:1023B0008288C2F3C0328A728288C2F38032CA72C3
:1023C0008288C2F340320A738288C2F300324A73B1
:1023D0008288C2F381228A738288C2F30122CA737F
:1023E0000079C0F3460008744C740020F0BD000072
:1023F000FF054000426C0A60826C4A60C26C8A60D1
:10240000026DCA60426D0A61826D4A61C26D8A6165
:10241000006EC8610020704770B50446B0F85000E7
:1024200000250104206800F0EAFE18B1A16B014309
:10243000A16304E00021206801F092F80546C5F38D
:10244000432070BD2DE9F843056B04460068416BDD
:1024500009041CD529071AD5D4E90A56002E14D030
:102460000027206801F09CF805F8010B010A05F827
:10247000011B010C05F8021B000E361F7F1C05F81E
:10248000010C082FEDD3C4E90A56BDE8F883416B6F
:102490004FF00006C90540F23A584FF0010743D506
:1024A000390281632068C16B4CF23A129143C163D7
:1024B0002068C16A21F00101C16228071CD515F00E
:1024C000220F09D0206800F0CBFE28B1A16B014398
:1024D000A1632046FFF7C0FE2168C1F8388084F868
:1024E00034702663A80703D0204600F05CFACCE7DE
:1024F000204600F05CFAC8E72806C6D5A80609D52C
:10250000206800F0ADFE28B1A16B0143A163204615
:10251000FFF7A2FEA807B8D12068C16A21F0080120
:10252000C16284F83470E3E7416B490423D529077D
:1025300021D5D4E90856002EA7D0002715F8010BA5
:10254000009015F8011B361F40EA0120009015F895
:10255000021B40EA0140009015F8011C40EA0160AE
:1025600000906946206801F02EF87F1C082FE5D303
:10257000C4E9085689E7416B11F03A0F85D0416BE9
:10258000890703D5A16B41F00201A163416B0907E3
:1025900003D5A16B41F00801A163416B890603D506
:1025A000A16B41F02001A163416BC90603D5A16B6A
:1025B00041F01001A163C0F838802068C16B21F49C
:1025C0009D71C163206800F04BFEA16B0843A063BE
:1025D000280706D584F8347026632046FFF73CFEB2
:1025E00053E7280687D515F0300F0CD0E16B114862
:1025F0008863E06BFEF7F6FA0028BBD0E06BBDE81D
:10260000F84301F017B8A8070CD0216C0A4888637A
:10261000206CFEF7E7FA0028ACD0206CBDE8F84348
:1026200000F0E6BFA66384F8347026632046FFF707
:102630006FFD2AE735360008F135000870B5040053
:102640000ED094F83400002518B92577204600F004
:1026500071F8032084F83400204600F00BF808B12C
:10266000012070BDA5632563012084F8340000209B
:1026700070BD00003EB50021044676200091CDE9F2
:1026800001100B460A46206800F06DFF60BB206811
:10269000416821F480714160206800F079FF18BB27
:1026A0002068416841F480714160204601F0D8F80B
:1026B000012528B184F83450A16B0143A16313E0D4
:1026C000204601F056F80028F4D14FF4007120683C
:1026D00000F072FC002808D0226804499163A16BC5
:1026E0000143A16384F8345001203EBDFF05400042
:1026F00010B500680B49884212D10B48016E21F4D5
:10270000806101664FF4F8510848FEF76FFC042120
:102710000748FEF76BFCBDE810403120FEF7AABE6B
:1027200010BD0000002801400010024000080048D1
:10273000000C0048F0B587B0044614216846FDF748
:1027400046FD1D492068884233D11C48016E41F482
:1027500080610166016E01F480610591C16C41F0F8
:102760000401C164C16C01F004010591C16C41F028
:102770000801C164C06C022400F0080005904FF409
:10278000F850002503260C278DE8F10069460C4817
:10279000FEF7E0FC04208DE8F10069460948FEF7E9
:1027A000D9FC002211463120FEF782FE3120FEF7CF
:1027B00072FE07B0F0BD000000280140001002408A
:1027C00000080048000C00482DE9F04F87B09B46F8
:1027D00016460D460446FEF7F5FD00903DB194F80F
:1027E0003400012807D0A06B40F000500DE0A06B32
:1027F00040F0006009E00020A063E26D06EB0B01F1
:10280000914204D9A06B40F00070A06385E00321E1
:1028100084F834102168C862616C012900D0760206
:102820004FF0FF3101914FEA4B2102914FF0010827
:1028300003AA902102278146CDF8188082E88202FF
:1028400001A9206800F058FDBBF1010F05D92763ED
:102850003146206800F044FC05E0C4F83080314681
:10286000206800F056FCDFF834A130B12268C2F8CD
:1028700038A0A16B0143A1634BE0029E1EE0406BB8
:10288000000413D596B10027206800F089FE05F8F2
:10289000010B010A05F8011B010C05F8021B000ED3
:1028A000361F7F1C05F8010C082FEDD3FEF78AFDBB
:1028B0000099411A109881421CD2D8B12068416B0E
:1028C00011F4957FDBD0416BC90509D5BBF1010F30
:1028D00006D9616C032903D000F0C2FC0028C5D1E1
:1028E0002068416B09071AD5C0F838A0A06B40F0EA
:1028F000080051E02168C1F838A0A06B40F000400A
:10290000A06384F83480C4F83090032007B000F04E
:1029100047B884F83480C4F830900120F6E7416B62
:10292000890705D5C0F838A0A06B40F0020033E05D
:10293000416B89061CD5C0F838A0A06B40F0200080
:102940002AE000BF00F02CFE05F8010B010A05F893
:10295000011B010C05F8021B000E05F8010C361FC7
:10296000FEF730FD0099411A109881420ED268B1ED
:102970002068416B890201D5002EE3D1216840F225
:102980003A50886384F834800020BFE72168C1F89A
:1029900038A0A06B40F00040A063BAE7FF054000FC
:1029A00030BCBDE8C08F10B5FDF784FC10BD10B57C
:1029B000FDF792FC10BD00002DE9F04F8DB09B4655
:1029C00016460D460446FEF7FDFC0A903DB194F80C
:1029D0003400012807D0A06B40F000500DE0A06B40
:1029E00040F0006009E00020A063E26D06EB0B01FF
:1029F000914204D9A06B40F00070A0637AE00321FB
:102A000084F834102168C862616C012900D0760214
:102A10004FF0FF3103914FEA4B2104919021CDE912
:102A200005104FF00109CDE90709824603A9206886
:102A300000F062FCBBF1010F06D920202063314673
:102A4000206800F027FC05E0102020633146206854
:102A500000F039FC5FEA000806D02168404888632E
:102A6000A06B40EA080071E0049E27E0406B400440
:102A70001CD5DEB15FF0000715F8010B009015F8CA
:102A8000011B361F40EA0120009015F8021B40EAA6
:102A90000140009015F8011C40EA01600090694671
:102AA000206800F090FD7F1C082FE5D3FEF78AFC1C
:102AB0000A99411A1698814220D2F8B12068416BD8
:102AC00011F48D7FD2D0416BC90524D5BBF1010F24
:102AD00021D9616C03291ED000F0C2FBD8B1226855
:102AE0001F499163A16B0143C4F8381084F83490F6
:102AF000C4F830A001200DB000F034B821681848A7
:102B00008863A06B40EA0800A06384F83490C4F89E
:102B100030A00320EFE72068416B090705D5104975
:102B20008163A06B40F0080010E0416B890705D578
:102B30000B498163A06B40F0020007E0416BC906BE
:102B400006D507498163A06B40F01000A063CDE774
:102B500040F23A51816384F834900020CBE70000C2
:102B6000FF05400030BCBDE8C08F10B5401EB0F17D
:102B7000807F01D3012010BD4FF0E02460610F2160
:102B8000601700F0A4FF0020A06107202061002052
:102B900010BDFEE710B50348FDF7F8FD0149491ED9
:102BA000087010BD0600002010B504490448FDF768
:102BB000C9FD0249491E087010BD00000600002032
:102BC000084E00082DE9F04786B014216846FDF74D
:102BD000FEFA2B48C16C41F00401C164C16C01F0E4
:102BE00004010591C16C41F00201C164C16C01F0A6
:102BF00002010591C16C41F00101C164C16C01F099
:102C000001010591C16C41F00801C164C06C012251
:102C100000F00800DFF86C80540305902146404620
:102C2000FEF7CBFB0122DFF86090160331464846E1
:102C3000FEF7C3FB4FF4C0574FF0904A01223946CC
:102C40005046FEF7BAFB0125CDE900450024029469
:102C5000694640460394FEF77DFA0096CDE901549B
:102C6000694648460394FEF775FA0097CDE901548A
:102C7000694650460394FEF76DFA06B0BDE8F0874A
:102C8000001002400008004800040048FEE77047BA
:102C9000704700002DE9F041444C05468846E06845
:102CA0000026810728680DD0E16801F00301814208
:102CB00016D1A8B1E0686968C0F30210401C8842D0
:102CC0000ED120E0012804D0022805D0032807D126
:102CD00008E02168890701E021684905002907DB30
:102CE00001265FE02168890302D421684903F5E7E2
:102CF000E1686A686FF00F0321F0730103EB0212C1
:102D000011430143E160206820F080602060FEF7FD
:102D100059FB074605E000BFFEF754FBC01B022825
:102D200037D820680001F7D4B8F1000F18D0B8F1F7
:102D3000010F1ED0287D4FF07E41400801EB40601E
:102D4000A96840EA01202169194A1140084320611D
:102D5000206840F080602060FEF734FB07461AE0F0
:102D6000A868E9680002090940EA41402169114A5E
:102D7000EBE7288A1049400801EB4050A96840EA77
:102D8000012021690D4AE0E7FEF71CFBC01B022869
:102D900001D9032606E020680001F5D52069A9695C
:102DA000084320613046BDE8F08100000010024079
:102DB000FF80FFF9FF80FDFF0000E0FFFF809FFF25
:102DC0002DE9F0413D4C06468846E0680025810724
:102DD00030680DD0E16801F00301814216D1A8B13D
:102DE000E0687168C0F30210401C88420ED120E0F8
:102DF000012804D0022805D0032807D108E0216863
:102E0000890701E021684905002907DB012551E018
:102E10002168890302D421684903F5E7E1687268F3
:102E20006FF00F0321F0730103EB02121143014312
:102E3000E160206820F080502060FEF7C3FA07466A
:102E400005E000BFFEF7BEFAC01B022829D82068A3
:102E50008000F7D4B8F1000F15D0307C4FF07E41E0
:102E6000400801EB4060B16840EA01206169144A02
:102E7000114008436061206840F080502060FEF7F8
:102E8000A1FA07460FE0B068F1680002090940EABC
:102E9000414061690B4AEBE7FEF794FAC01B022838
:102EA00001D9032506E020688000F5D560697169C5
:102EB000084360612846BDE8F08100000010024030
:102EC000FF80FFF9FF80FDFFF8B51C4D064600248A
:102ED000A86DC00002D5FEF751FB0DE0A86D40F0D3
:102EE0008050A865A86D00F080500090FEF746FB6A
:102EF000A96D21F08051A965B0F5007F04D0802E26
:102F000007D94FF003040AE0802E08D9A02E01D87B
:102F100004E001D1022402E0702E00D1012408480F
:102F2000016821F0070121430160006800F00700FB
:102F3000A04201D00120F8BD0020F8BD00100240E1
:102F4000002002400148FFF77DBA00004400002045
:102F500010B586B004463720CDE90010402002901D
:102F6000002003904FF4806004906946204600F0F2
:102F70001AFB41F288323721204600F0CFF906B023
:102F800010BD000010B504460A4886B00143292050
:102F9000CDE9001040200290002003904FF48060A3
:102FA00004906946204600F0FEFA204600F06EFAD2
:102FB00006B010BD0000108010B586B00446102089
:102FC000CDE9001040200290002003904FF4806073
:102FD00004906946204600F0E6FA41F2883210215A
:102FE000204600F09BF906B010BD10B586B004462F
:102FF0000620CDE9001040200290002003904FF4FD
:10300000806004906946204600F0CDFA41F2883293
:103010000621204600F082F906B010BD30B585B01B
:1030200000240546009401944FF480600294CDE999
:1030300003406946284600F0B6FA0B484FF4FA51AF
:103040000068B0FBF1F041F288314843401E03D2E2
:103050004FF0004005B030BD696B0906F6D5C520BC
:10306000A8632046F6E700003800002070B585B060
:1030700004464FF4D570009001A908204025002691
:1030800081E86100C00104906946204600F08BFA97
:1030900012484FF4FA510068B0FBF1F041F2883168
:1030A0004843401E03D24FF0004005B070BD616B35
:1030B00011F0450FF5D00905F3D4606B400701D539
:1030C000042003E0606BC00702D00120A063ECE79E
:1030D000606B400600D5A5633046E6E73800002067
:1030E00010B586B004461220CDE9001040200290B1
:1030F000002003904FF4806004906946204600F061
:1031000052FA41F288321221204600F007F906B047
:1031100010BD10B586B004461120CDE90010402046
:103120000290002003904FF480600490694620468E
:1031300000F039FA41F288321121204600F0EEF811
:1031400006B010BD10B586B004460720CDE90020BA
:1031500040200290002003904FF480600490694664
:10316000204600F020FA41F288320721204600F084
:10317000D5F806B010BD10B586B004460021022077
:10318000CDE90010C020CDE902014FF48060049029
:103190006946204600F007FA204600F04FF906B0D5
:1031A00010BD10B586B004460920CDE90010C0203E
:1031B0000290002003904FF48060049069462046FE
:1031C00000F0F1F9204600F039F906B010BD10B555
:1031D00086B0044600213320CDE900104020CDE91F
:1031E0000201000104906946204600F0DCF941F23A
:1031F00088323321204600F091F806B010BD10B59A
:1032000086B004460D20CDE9001040200290002039
:1032100003904FF4806004906946204600F0C3F9A3
:1032200041F288320D21204600F078F806B010BD3A
:1032300030B585B00C46054600210320CDE90010CD
:103240004020CDE90201000104906946284600F0C3
:10325000AAF922460321284600F03AF905B030BD0C
:1032600010B586B0044600210C20CDE900104020A6
:10327000CDE90201000104906946204600F093F96F
:10328000034A0C21204600F049F806B010BD0000AA
:1032900000E1F50510B586B004461920CDE900100F
:1032A00040200290002003904FF480600490694613
:1032B000204600F078F941F288321921204600F0CA
:1032C0002DF806B010BD10B586B004461820CDE923
:1032D000001040200290002003904FF48060049082
:1032E0006946204600F05FF941F2883218212046F5
:1032F00000F014F806B010BD0A6842624A688262A3
:10330000D1E902231A43D1E904310B43C16A1A43BC
:1033100021F0F7011143C16200207047454B10B501
:103320001B684FF4FA54B3FBF4F353435B1E02D211
:103330004FF0004010BD426B12F0450FF6D0120561
:10334000F4D4426B520703D504218163084610BDB3
:10335000426BD20702D00121816305E0C52282635E
:103360000269D2B28A4201D0012010BD002100F0D2
:10337000F7F83149084201D1002010BD002802DAD7
:103380004FF0007010BD410001D5402010BD8100FC
:1033900001D5802010BDC10002D54FF4807010BD52
:1033A000010102D54FF4007010BD410102D54FF468
:1033B000806010BDC10102D54FF4006010BD010254
:1033C00002D54FF4805010BD410202D54FF4005099
:1033D00010BD810202D54FF4804010BDC10202D55C
:1033E0004FF4004010BD410302D54FF4003010BD32
:1033F000810302D54FF4802010BDC10302D54FF4E4
:10340000002010BD010402D54FF4801010BD41040E
:1034100002D54FF4001010BD810402D54FF4800096
:1034200010BD000702D54FF4000010BD4FF48030EE
:1034300010BD00003800002008E0FFFD12494FF4E5
:10344000FA520968B1FBF2F141F288325143491E48
:1034500002D24FF000407047426B12F0450FF6D099
:103460001205F4D4416B490703D504218163084652
:103470007047416BC90703D001218163084670473B
:10348000C521816300207047380000200F494FF4A8
:10349000FA520968B1FBF2F141F288325143491EF8
:1034A00002D24FF000407047426B12F0450FF6D049
:1034B0001205F4D4416B490703D504218163084602
:1034C0007047C5218163002070470000380000204C
:1034D00030B5204B4FF4FA541B68B3FBF4F341F2C0
:1034E000883463435B1E02D24FF0004030BD446B12
:1034F00014F0450FF6D02405F4D4436B5B0703D5D5
:1035000004218163084630BD436BDB0702D00121F3
:10351000816303E00369DBB28B4201D0012030BD3F
:10352000C5218163002100F01BF810F4604F04D026
:10353000410406D54FF4005030BD000C108000202F
:1035400030BD000402D54FF4805030BD4FF48030C0
:1035500030BD000038000020006800F00300704714
:1035600008444069704770B51943DDE904463443A7
:10357000069D214329431143426847F6FF639A435E
:103580000A434260002070BD002101600846704778
:1035900010B5032101600220FDF762FB002010BD81
:1035A000D0F8800070470A688260D1E901231A438D
:1035B000D1E903310B43C1681A436FF30B01114387
:1035C000C160002070470968C0F880100020704773
:1035D00010B5064C01202070FCF730FE18B9207899
:1035E00020F001002070207810BD000004000020B1
:1035F00010B5846A40F23A50216888632046FEF78D
:103600000BFF012184F8341000212163062801D02A
:10361000052805D12068FFF723FEA16B0843A063AE
:10362000A06B0028204602D0FEF716FE10BDFEF764
:103630006FFD10BD10B5846A40F23A50216888636E
:103640002046FEF7E9FE012184F8341000212163B1
:10365000062801D0052805D12068FFF701FEA16BDF
:103660000843A063A06B0028204602D0FEF7F4FDBB
:1036700010BDFEF74DFD10BD10B5FCF7C7FDBDE850
:103680001040FFF787BA000000220249104600F000
:1036900029BD0000060000202DE9F04F89B00D463D
:1036A0000446FDF78FFE00268346009601963746B6
:1036B00008212068FFF780FC002834D1B4F85000BE
:1036C00001042068FFF744FC00282CD1401E4FF075
:1036D0000808CDE9020830204FF00209CDE90409BD
:1036E0000120CDE9067002A92068FFF705FE2068D9
:1036F000FFF76DFD002816D1EA4640F22A47206800
:10370000416B394212D1416B890204D5FFF748FF62
:103710004AF82600761CFDF755FEA0EB0B00401C76
:10372000EDD14FF0004009B000F020B8416B09071F
:1037300003D5C0F838800820F5E7416B890703D529
:10374000C0F838900220EEE7416B890603D52021AE
:1037500081630846E7E740F23A518163019800BA75
:103760002860009800BA68600020DCE730BCBDE843
:10377000C08F10B590B004460120ADF83800206825
:10378000FFF7EAFE002854D0606C032842D020687E
:10379000FFF7F1FC00284AD100212068FFF7E0FE86
:1037A000606704212068FFF7DBFEA067082120681E
:1037B000FFF7D6FEE0670C212068FFF7D1FEC4F8C2
:1037C0008000606C032825D00EA92068FFF730FD2B
:1037D00000282CD1606C03281CD0BDF8380020656F
:1037E00001042068FFF7DDFC002820D100212068BB
:1037F000FFF7B6FE606604212068FFF7B1FEA06601
:1038000008212068FFF7ACFEE0660C212068FFF776
:10381000A7FE206704212068FFF7A2FE000DE064E8
:1038200003A92046FEF71AFD30B14FF0805010B0CA
:1038300010BD4FF08060FAE7B4F850000023020496
:103840002068FFF77FFC0028F1D104F1100007C8C1
:103850008DE8070094E80F00FFF785FE0020E6E7FB
:103860002DE9F84F0026044600963546B04600681C
:10387000FFF7D4FB002827D12068FFF7F7FB4FF0B4
:10388000805B4FF001094FF6FF7748B1A6642068CE
:10389000FFF7C4FB002817D1A06C012802D020E05C
:1038A000C4F8489000212068FFF752FB58B918E08F
:1038B00000212068FFF74CFB002805D15146206805
:1038C000FFF760FB10B1584600F024B800212068D3
:1038D000FFF746FE05464FEAD0780098401C00905E
:1038E00002E0DFF82CA00098B84202D2B8F1000F35
:1038F000DED00098B84202D34FF08070E4E7680051
:1039000002D5C4F8449000E066640020DCE70000C3
:10391000000010C118BCBDE8E08F000070B5064C77
:10392000054601202070FCF795FC18B92846FFF7E2
:103930004FFE2070207870BD0400002010B51248A2
:1039400088B014460078C00702D0032008B010BD2C
:10395000C1B1012905D0022908D003290CD00420C7
:10396000F4E76846FCF764FC06980AE06846FCF752
:103970005FFC0798208005E06846FCF759FC079833
:10398000400A20600020E1E70400002070B51D46D9
:10399000164608460124A31E2A463146FCF77AFC47
:1039A00028B900BFFCF74AFC0028FBD100242046C0
:1039B00070BDFFF70DBE000070B51D4616460846E7
:1039C0000124A31E2A463146FCF776FC28B900BF25
:1039D000FCF734FC0028FBD10024204670BD704762
:1039E000FDF7F6BC2DE9F041B8B0442122A8FCF760
:1039F000EEFB142133A8FCF7EAFB88216846FCF7AC
:103A0000E6FB01240026CDE928464FF010080225E8
:103A1000CDF888806020CDE92C542A9028200727F3
:103A2000CDE92E40CDE93075329522A8FEF7DCF8BD
:103A300000B1FEE70F2033900320CDE9340636961F
:103A4000042133A83796FDF779FF00B1FEE74FF464
:103A500000200090C0011C9001948011CDE9065017
:103A6000CDE90475CDE902486846FDF78FFD00B148
:103A7000FEE74FF40070FDF74DFD002800D0FEE793
:103A800038B0BDE8F08100000D48016841F47001D4
:103A900001600C48016841F0010101600021816072
:103AA0000268094B1A4002608214C260026822F464
:103AB0008022026081610249C0038039086070473A
:103AC00088ED00E000100240FFFFF6EAFEE709077C
:103AD000090E002804DB00F1E02080F80014704794
:103AE00000F00F0000F1E02080F8141D704702E0A4
:103AF00008C8121F08C1002AFAD170477047002079
:103B000001E001C1121F002AFBD1704710B5044625
:103B10000020E070401E2063204600F0E8FF08B15E
:103B2000042010BD04F2322000F090FFA0F52A41DD
:103B3000553901D0032010BD94F83400E92805D090
:103B4000EB2814D194F83600902810D104F16A00C3
:103B500000F071FF0749B1EB002F06D004F1860099
:103B600000F069FF0449884201D1002010BD022005
:103B700010BD00000046415446415433F0B50022C8
:103B8000144D134605EB021426685EB10768BE4269
:103B900009D166688768BE4205D1A4684669B44207
:103BA00004D000E00123521C022AEBD3022A01D0E8
:103BB00069B904E04BB9022907D01220F0BD05EB2A
:103BC00002108089B0F5807F01D00020F0BD102068
:103BD000F0BD00002C21002030B50021054B0C4623
:103BE00003EB01121568854200D11460491C0229BB
:103BF000F6D330BD2C2100200268C06A9389528917
:103C00005343B1FBF3F1001D04C81AB1914203D331
:103C1000891AF8E7002070470068084470478269F5
:103C2000891E921E8A4201D800207047C26A4089CC
:103C300001FB002070472DE9F04105680F00804628
:103C400006D000F010FE022809D20120BDE8F08164
:103C50002E6916B1A869B04207D8012605E0411CBB
:103C6000F4D0A9698142F1D83E463446A869641C63
:103C7000A04202D80224022E0AD32146404600F078
:103C8000F2FD38B10128E1D0411CDFD0B442EDD1C2
:103C90000020DBE74FF0FF3632462146284600F091
:103CA0003FFF30B957B122463946284600F038FF69
:103CB00020B101280FD001242046C7E72C61D5E9A7
:103CC0000501891E884201D8401E6861287940F0AC
:103CD00001002871F0E73446EEE700002DE9F041DD
:103CE0000E4624300D6804460B22202100F0F8FE19
:103CF0000020014608272A5C401C202A12D92F2ABE
:103D00000BD05C2A09D02E2A01D0B94214D30B2F34
:103D100022D02E2A20D10CE0401C2B5C2F2BFBD074
:103D20005C2BF9D028443060B1B12078E5281FD051
:103D300020E008210B27DEE7802A03D3114B1A4429
:103D400012F8802C10A300E05B1C93F800C0BCF1BB
:103D5000000F04D09445F7D10620BDE8F081A2F110
:103D60006103192B01D8203AD2B26254491CC2E730
:103D700005202070202A01D8042000E00020E072F5
:103D80000020EAE75C4E0008222A2B2C3A3B3C3DFF
:103D90003E3F5B5D7C7F0000401E022812D20A4934
:103DA00001EB00118889B0F5807F05D008B1401E75
:103DB00080B2888110B103E00020FAE7002008609B
:103DC00000207047022070472C2100202DE9F0418F
:103DD00004460021056800F0DFF8002826D12846B7
:103DE000E16900F084FE02001FD1206A017899B1D8
:103DF000C17A01F03F01A171C17A09070FD404F122
:103E000024010B2610F8013B11F8017BDB1B761E09
:103E100004D0002BF6D002E0042206E02BB10021F2
:103E2000204600F005F80200D9D01046BDE8F08128
:103E30002DE9F047054647690468C069894620377F
:103E400010B1B7F5001F02D30420BDE8F087A189A7
:103E5000B7FBF1F201FB127100295FD1401CE86150
:103E6000A9694FF0000819B3A0896289B7FBF0F087
:103E7000521E104252D1284600F0F5FC0646012899
:103E80001FD9701C36D0A069B04241D8B9F1000FDB
:103E900012D02846A969FFF7CEFE06000FD0012EEA
:103EA0000FD0701C26D0204600F06AFF10BB0AE03D
:103EB0002089B0EB571F31D8C5F81C80C4E7072014
:103EC000C3E70220C1E7A289002104F1340000F019
:103ED00007FE4FF0000831462046FFF7A0FE4FF0E6
:103EE000010920630DE000BF84F80390204600F034
:103EF00047FF08B10120A8E7206B08F10108401C2A
:103F0000206361894145EFD8216BA1EB0800206354
:103F100031462046AE61FFF782FEE8616F61A089FD
:103F2000B7FBF0F100FB1170204434302862002010
:103F30008BE770B504460021066800F02DF80DE00F
:103F40003046E16900F0D3FD50B9206A0078E528D9
:103F500009D040B101212046FFF76AFF0028EFD0C9
:103F6000042807D007E03046E16900F0C0FD0500F5
:103F700003D00FE0072005460CE020220021206A34
:103F800000F0AEFD0B2204F12401206A00F09EFD3A
:103F90000120F070284670BD2DE9F04104680F46FD
:103FA0000646B1F5001F3CD2F8063AD17761B568F4
:103FB00025B92078032806D3A56A25B16089A1898F
:103FC00000FB01F812E02089B0EB571F29D9A06A45
:103FD00012E0304600F047FC0546401C1FD0022D81
:103FE0001FD3A069A8421CD9A7EB0807474529465B
:103FF000EFD22046FFF713FEC6E9065088B1A1892B
:10400000B7FBF1F10844F061A089B7FBF0F100FBC8
:1040100011702044343030620020BDE8F08101206E
:10402000FBE70220F9E70000084910B50B5C00220D
:1040300053B901220A540A1801EB8000127A406831
:104040000168104688470246104610BD4C210020EA
:1040500030B4054C231804EB80001B7A40680469D7
:104060001846A44630BC60474C21002030B4054DB2
:104070002C1805EB8000247A406885682046AC4601
:1040800030BC60474C210020044A111802EB80002C
:10409000097A406842680846104700004C21002019
:1040A00030B4054D2C1805EB8000247A4068C568B3
:1040B0002046AC4630BC60474C21002038B5044651
:1040C00000F008FA00280CD16946204600F081FE75
:1040D000002806D12069FFF75FFE002801D10021EA
:1040E000216038BD2DE9F74181B0904602980090DB
:1040F000684600F02EFC040003D50B2004B0BDE898
:10410000F0810D4E002756F824501DB12846FFF7C8
:1041100063FD2F700198002800D0077046F8240036
:1041200002D0B8F1010F01D00020E7E7002201A979
:1041300002A800F017FAE1E7400000202DE9F7435C
:1041400094B005000BD002F03F063246694615A830
:1041500000F008FA04004FF0000804D0F3E0092052
:1041600017B0BDE8F0830098049004A8159900F0FA
:104170003DFB04000ED19DF83F00000601D506244A
:1041800008E0700801D0012100E0002104A8FFF739
:10419000F5FC044616F01C0F5DD04FF00109C4B1C8
:1041A000042C10D100206B4902E0401C022804D2EC
:1041B00001EB00121268002AF7D1022807D004A8E8
:1041C000FFF7B7FE044646F008065CB1BBE01224D8
:1041D000B9E09DF8160010F0110F47D1700701D516
:1041E0000824B0E0300747D500F0B1FB07460C9833
:1041F00039460E3000F074FD0C983946163000F048
:104200006FFD0C982021C1720C99009800F000FC01
:10421000074600220C99009800F04EFD0C980021F2
:104220001C3000F05DFD009981F8039017B3D1F8C0
:1042300030900022394604A800F004FD040009D1A2
:104240004946009800F053FC04000098A7F10107CC
:1042500007610DD077E0ECBB9DF81600C10601D5D3
:10426000042470E0B10703D5C00701D007246AE039
:10427000300701D546F040060098006B68620C9844
:10428000A862700801D0012100E0002104A800F01C
:104290007FFB2861C0B30C99009800F0B9FBA860BF
:1042A0000C981C3000F0C7FBC5F82C80E860009922
:1042B0002960009905F130004FF48052C988A98027
:1042C0002E7585F81580C5F8208000218146C5F837
:1042D000188000E037E000F003FCB00635D5EE684A
:1042E0009EB3AE610098A9684789808947430FE073
:1042F000284600F0B8FA0146012800D80224481CDC
:1043000003D0F61B24B105E021E00124F61B01E0F7
:10431000BE42EDD8E961B4B900988289B6FBF2F3E8
:1043200002FB13628AB1FFF77AFC80B10099012386
:104330008A89B6FBF2F202442A6248784946FFF7BE
:1043400095FE10B10124C5F80080204608E702243C
:10435000F9E700002C2100202DE9F04F884689B0B4
:104360000021196099461546044604A900F031FD64
:10437000002812D1607D00280FD1207DC0070BD00E
:10438000A169E0680127401A4FF0020A04F1300BDE
:10439000854200D9054695E0072009B000F097B89E
:1043A000049BA1699889B1FBF0F200FB1212002A6C
:1043B00069D1B1FBF0F65889401E064011D129B1F0
:1043C000E06A28B12046FFF717FC05E0A06803E08B
:1043D0002046E16900F047FA02281DD3411C4DD068
:1043E000E061E1690498FFF71AFCA8B1304400903D
:1043F00004988189B5FBF1F1059131B372184189B7
:104400008A4201D9891B059140784146059B009A53
:10441000FFF72CFE90BB03E084F815A00220BCE758
:10442000207D00060CD5216A0098081A059988425B
:1044300006D204998A89594600FB028000F046FBA7
:10444000049886890598464332E0226A00998A4298
:1044500017D0217D090609D5407801235946FFF779
:104460001FFE58B9207D00F07F00207504980123BD
:1044700059464078009AFFF7F9FD10B167750120A1
:104480008BE7009820620498A1698089B1FBF0F263
:1044900000FB1212861AAE4200D92E46B1FBF0F292
:1044A00000FB1210011932464046303100F00EFB7D
:1044B000A069B0443044A061D9F800008119AD1B57
:1044C000C9F80010002D7FF46BAF002065E730BC09
:1044D000BDE8C08FF8B50446694600F07AFC0028B4
:1044E0000ED1217D4A060BD508060ED50098226A0A
:1044F0000123407804F13001FFF7D2FD08B101201B
:10450000F8BD207D00F07F00207500F020FA0646FF
:10451000616A009800F0EBFA0028F1D1A56A2946FB
:10452000E87A40F02000E872A268206800F0C4FB3E
:1045300005F11C00E16800F0D3FB314605F11600DF
:1045400000F0CEFB002105F1120000F0D1FB009835
:104550000121C17000F0D0FB217D01F0BF01217568
:10456000F8BD00002DE9FF41002790460E460F6080
:1045700000F0EFF9050003D50B2004B0BDE8F08191
:10458000974850F825409CB13460207808F0FE062A
:1045900020B16078FFF778FDC1070BD02770E8B233
:1045A000B8466070FFF740FDC10708D00320E4E77C
:1045B0000C20E2E70EB1400704D40020DDE71EB175
:1045C000400701D50A20D8E7607804F10C020221E7
:1045D000FFF73EFDF0BBA089A0F50071B1F5606F5B
:1045E0003FD8411E08423CD1002631462046FFF705
:1045F0008DFA022822D100254FEA0D0704EB0510A1
:1046000090F8F61100F5F97019B1083000F013FABE
:1046100000E0002047F825006D1C042DEED3002596
:1046200057F8256036B131462046FFF76FFA022869
:1046300001D203E003206D1C042DF1D3042810D017
:10464000022878D204F13F0000F000FAA1898842E4
:1046500071D100E005E004F14A0000F0F7F910B173
:1046600005E0012089E704F1580000F0E4F9E06179
:1046700094F84450A570012D01D0022D5BD1454323
:1046800094F841006081E8B3411E084253D104F11F
:10469000450000F0DBF92081A1894909B0FBF1F266
:1046A00001FB120070BB04F1470000F0CFF90700D6
:1046B00004D104F1540000F0BEF9074604F14200B1
:1046C00000F0C4F9010036D0A08923894009B3FB6A
:1046D000F0F04A19024497422DD3B81A6789B0FB0B
:1046E000F7F078B103274FF6F57C604500D8022734
:1046F00040F6F57C604500D801273244801C3144E7
:10470000E26200E017E0A061C4E90861032F14D061
:104710008BB12944A162022F20D000F0010100EBEF
:10472000400001EB5000A189401E0844B0FBF1F0AD
:10473000E169884214D90D201FE704F15E0000F002
:1047400085F90028F7D120890028F4D104F1600010
:1047500000F071F9A062A0698000E4E74000E2E7A0
:104760004FF0FF306061206180202071032F2CD139
:1047700004F1640000F06AF9012826D1711C20467A
:1047800000F0B5F908BB84F8048004F2322000F090
:104790005DF9A0F52A41553917D104F1340000F034
:1047A0004AF91049884210D104F5067000F043F927
:1047B0000D49884209D104F5077000F03CF96061A9
:1047C00004F5087000F037F9206105482770001FD4
:1047D0000188491C0180E1802046FFF7FDF9ECE6E5
:1047E00040000020525261417272416173B504462B
:1047F0000568019801E0401C019001782F29FAD04A
:104800005C29F8D00021A16001980078202806D208
:10481000802084F82F002046FFF7BEFB7CBD01A955
:104820002046FFF75BFA0028F8D12046FFF7CEFAC2
:1048300094F82F1028B10428F0D14907EED40520B0
:104840007CBD4907FCD4A079C006F8D5A989606968
:10485000B0FBF1F201FB120041192846343100F09F
:10486000D7F8A060DBE72DE9F04104680D46022986
:104870000BD3A069A84208D920784FF0FF36012851
:1048800007D0022834D0032849D001263046BDE89D
:10489000F081A08905EB5507B7FBF0F0616A014490
:1048A000204600F024F90028F0D1A089B7FBF0F1F0
:1048B00000FB11717F1CB7FBF0F0214491F83480AC
:1048C000616A0144204600F012F90028DED1A08977
:1048D000B7FBF0F100FB1170204490F8341048EA67
:1048E0000120E90701D00609D0E7C0F30B06CDE7A8
:1048F000A089616A4008B5FBF0F00144204600F051
:10490000F6F80028C2D1A1896800B0FBF1F201FBE2
:1049100012002044343000F099F80646B6E7A0892A
:10492000616A8008B5FBF0F00144204600F0DFF832
:104930000028ABD1A189A800B0FBF1F201FB120065
:104940002044343000F077F820F070469EE70020D5
:10495000704710B504464FF0FF302268002A13D08C
:10496000114600E0491C0B78212B0ED33A2BF9D1CC
:1049700012F8013B303B0A2B06D28A4204D1002BAD
:1049800002D1491C1846216010BD002010BD000056
:10499000F0B502461D4BD2F80050002003EB001486
:1049A0002668AE4207D166689768BE4203D1A46804
:1049B0005669B44202D0401C0228EFD3022814D119
:1049C000002002E0401C022804D203EB00142468FB
:1049D000002CF7D102280ED003EB00142560956857
:1049E00065605269A2600022A281002903EB0011D8
:1049F000898902D019B10020F0BD491C01E04FF4B3
:104A0000807103EB0012401C9181F0BD2C2100202D
:104A100070B506460D4601F11A0000F017F804467D
:104A20003078032805D105F1140000F00FF844EAAE
:104A30000044204670BDC178827842EA0121427864
:104A4000007842EA012140EA01207047417800786D
:104A500040EA012070470000FCF7C2FCFEF7C2FFED
:104A6000FEF7B0F8174816490160002141608160E7
:104A7000C160016141618161FEF796F8124CD4F882
:104A80009400800105D5D4F8940040F40000C4F8E7
:104A90009400FBF7DBFDFBF721FC78B94FF47A704B
:104AA000FCF7DEF8FEF7E8FDE06C20F00400E064BF
:104AB000E06C20F00800E064FBF7A0FDFEE70000DA
:104AC000002801404400002000100240002A05D0C8
:104AD00011F8013B00F8013B521EF9D1704700006C
:104AE0005FFA81F100F8011B521EFBD1704770B5CF
:104AF0000446006B0D460026A8420FD0204600F069
:104B00003FF906000AD1607801232A4604F13401F6
:104B1000FFF7ACFA08B1751E01262563304670BD5B
:104B20002DE9F047022617460D46044602297DD39B
:104B3000A069A8427AD920784FF00109012804D051
:104B4000022840D003287AD154E0A18905EB55080A
:104B5000B8FBF1F0616A01442046FFF7C8FF060088
:104B60006DD1A189B8FBF1F201FB128020443430F1
:104B700008F10108E90704D00178FAB262F31F11C5
:104B800000E03946017084F80390A189B8FBF1F088
:104B9000616A01442046FFF7AAFF06004FD1A189B0
:104BA000B8FBF1F201FB128020443430E90702D057
:104BB000C7F3071105E00178C7F3032201F0F00104
:104BC0001143017039E0A089616A4008B5FBF0F03B
:104BD00001442046FFF78BFF060030D1A189680011
:104BE000B0FBF1F201FB12002044B9B2343000F006
:104BF0007FF822E0A089616A8008B5FBF0F00144EB
:104C00002046FFF774FF060019D1A089AD00B5FB5F
:104C1000F0F100FB115020443430FFF70CFF67F334
:104C20001B000146A089B5FBF0F200E007E000FBA5
:104C300012502044343000F053F884F8039030468A
:104C4000BDE8F0872DE9F041056813460E4607469A
:104C500002292DD3A869B0422AD93BB14FF0FF32C7
:104C600019462846FFF75CFF00281FD13146384619
:104C7000FFF7F9FD040018D0012C19D0601C19D0E1
:104C8000002231462846FFF74BFF00280ED1D5E918
:104C90000510821E914205D2491C6961297941F0B3
:104CA000010129712646B042E0D80020BDE8F0811C
:104CB0000220FBE70120F9E770B50C4606461546D1
:104CC00091B204F11A0000F013F83078032806D1ED
:104CD000290C04F11400BDE8704000F009B870BD63
:104CE0000170090A4170090A8170090AC170704790
:104CF0000170090A4170704770B5044600F040F831
:104D0000050036D1207803282CD12079012829D11B
:104D100004F13400A28900210646FFF7E1FE4AF6BD
:104D2000552104F23220FFF7E3FF13493046FFF725
:104D3000D7FF124904F50670FFF7D2FF04F507709C
:104D40006169FFF7CDFF04F508702169FFF7C8FF1F
:104D5000226A0123521C226360783146FFF7A0F9D2
:104D600000202071002260781146FFF771F900B130
:104D70000125284670BD00005252614172724161A6
:104D80002DE9F0410446C0780027F8B1256B04F105
:104D90003401607801232A468846FFF781F908B17B
:104DA000012713E00020E070606AE169281A884258
:104DB0000CD2A67808E0E0690123054460782A4611
:104DC0004146FFF76DF9761E022EF4D23846BDE853
:104DD000F08170B50E4604004FF009050CD0206834
:104DE00050B1017841B1A188C288914204D1407884
:104DF000FFF74AF9C00703D000203060284670BD95
:104E000000252068F9E700001D390008B3390008C3
:104E10008D390008B93900083D390008000000004C
:104E2000000000000102030406070809A086010033
:104E3000400D0300801A060000350C0040420F00B0
:104E400080841E0000093D0000127A000024F40056
:104E500000366E010048E801006CDC024355454114
:104E60004141414345454549494941414592924F58
:104E70004F4F5555594F554F9C4F9E9F41494F5548
:104E8000A5A5A6A7A8A9AAABACADAEAFB0B1B2B369
:104E9000B4414141B8B9BABBBCBDBEBFC0C1C2C3B9
:104EA000C4C54141C8C9CACBCCCDCECFD1D145456F
:104EB0004549494949D9DADBDCDD49DF4FE14F4F4C
:104EC0004F4FE6E8E85555555959EEEFF0F1F2F33A
:104ED000F4F5F6F7F8F9FAFBFCFDFEFF010004001B
:104EE0001000400000010002000001000200040068
:104EF0000800100020000000184F000800000020EB
:104F000044000000EE3A00085C4F00084400002016
:104F100014250000FE3A000800800008010000008F
:104F20000000000010000000010000000000000070
:104F30000000000000000000000000000000000071
:104F40000100000000000000000000000000000060
:0C4F500000093D0000000000000000000F
:040000050800018965
:00000001FF
